:100000000C9434000C9451000C9451000C94510049
:100010000C9451000C9451000C9451000C9451001C
:100020000C9451000C9451000C9451000C947B00E2
:100030000C9451000C9451000C9451000C945100FC
:100040000C9451000C9451000C9451000C945100EC
:100050000C9451000C9451000C9451000C945100DC
:100060000C9451000C94510011241FBECFEFD8E026
:10007000DEBFCDBF11E0A0E0B1E0E6EDF8E002C0E8
:1000800005900D92A230B107D9F721E0A2E0B1E0CE
:1000900001C01D92AE30B207E1F70E9498010C94A6
:1000A00069040C9400008AB18C638AB98BB1837C9B
:1000B0008BB98AB1806C8AB984B18F6084B98BB1F5
:1000C0008F738BB985B1807F85B987B1807F87B900
:1000D00088B18F6088B9109280008DE08093810094
:1000E0008AE196E0909389008093880082E0809373
:1000F0006F00789408951F920F920FB60F921124FB
:100100005F936F937F938F939F93AF93BF938091F0
:1001100000018823B1F080910D018F5F8A30D0F10A
:1001200010920D0180910B0190910C01019690931A
:100130000C0180930B0180910B0190910C01CC97E5
:1001400061F1809106018823C9F0809103019091AB
:1001500004010196909304018093030180910301AF
:1001600090910401892B51F0109204011092030127
:100170009091020181E0892780930201BF91AF91A4
:100180009F918F917F916F915F910F900FBE0F9014
:100190001F90189580930D01D4CF10920C011092EE
:1001A0000B018091090190910A01019690930A0137
:1001B000809309018091090190910A01CC9709F679
:1001C00010920A0110920901809107019091080193
:1001D000019668E170E00E944104909308018093C9
:1001E0000701AFCF2BB18F709927880F991F880F08
:1001F000991F237C822B8BB908950F931F93CF9364
:10020000DF93CDB7DEB72C970FB6F894DEBF0FBEE5
:10021000CDBF8B01FA012AE030E0B9010E94410410
:100220007A8369839C838B83C801B9010E9441044E
:100230007E836D8398878F83CF01B9010E9441042B
:100240007A8769879C878B87FE0131964EEF5FEF37
:1002500020E030E061E070E080910601882339F011
:100260008091050190E08217930709F44FC0223076
:100270003105D4F185B1A82FA07FCB01042E01C098
:10028000880F0A94EAF78A2B85B98BB18F738BB9E3
:10029000ABB1808191818F709927880F991F880F4A
:1002A000991F9A2F937C892B8BB98FE39FE101973C
:1002B000F1F700C000008BB18F738BB985B1807FDF
:1002C00085B92F5F3F4F32964F5F5F4F2630310524
:1002D00019F62C960FB6F894DEBF0FBECDBFDF9196
:1002E000CF911F910F9108958BB1D90116968B0173
:1002F00002C0000F111FAA95E2F7D801A07C8F73EE
:100300008A2B8BB985B1807F85B9C2CF80910201DC
:10031000882309F4ACCF8BB18F738BB985B1807F03
:1003200085B98FE39FE10197F1F700C00000C9CFC5
:100330000E945300DD24D39406E010E0CAE0D0E030
:1003400083E0E82EF12C97E1A92EB12C309921C041
:100350002FEF80E792E0215080409040E1F700C00D
:100360000000309916C0809106018D25809306010A
:1003700080910601882309F4CBC0109200011092ED
:100380000501109202011092040110920301309BAA
:10039000FECF80910601882311F0319B1BC0809114
:1003A0000601882311F0329B32C080910601882318
:1003B00011F0339B6DC040910B0150910C01609185
:1003C000090170910A0180910701909108010E9432
:1003D000FD00BCCF2FEF80E792E02150804090409D
:1003E000E1F700C000003199DACF8091050190E07B
:1003F0000196B8010E944104809305011092020108
:100400001092040110920301319BFECFC8CF2FEF51
:1004100080E792E0215080409040E1F700C000006A
:100420003299C3CF80910501823009F4CBC108F421
:10043000A7C0843009F4A0C108F478C1853029F53B
:10044000E0910B01F0910C0180910B0190910C0156
:10045000BE010E9441040196BE010E9441049C011C
:10046000CF01BE010E944104CB01880F991F660F86
:10047000771F660F771F660F771F860F971F820FF4
:10048000931F90930C0180930B01329BFECF8DCF75
:100490002FEF80E792E0215080409040E1F700C0CC
:1004A0000000339988CF80910501823009F418C18A
:1004B00090F1843009F49BC008F4ECC0853029F534
:1004C000E0910B01F0910C0180910B0190910C01D6
:1004D000BE010E9441040996BE010E9441049C0194
:1004E000CF01BE010E944104CB01880F991F660F06
:1004F000771F660F771F660F771F860F971F820F74
:10050000931F90930C0180930B01339BFECF53CF2D
:10051000D09200013CCF882309F47AC18130A9F739
:10052000E0910701F0910801809107019091080185
:10053000BE010E9441040996BE010E9441049C0133
:10054000CF01BE010E944104CB01880F991F660FA5
:10055000771F660F771F660F771F860F971F820F13
:10056000931F909308018093070180910701909158
:100570000801489754F2B0920801A0920701C5CF34
:10058000882309F45AC0813009F07FCFE091070138
:10059000F09108018091070190910801BE010E942D
:1005A00041040196BE010E9441049C01CF01BE019D
:1005B0000E944104CB01880F991F660F771F660FB9
:1005C000771F660F771F860F971F820F931F9093D9
:1005D00008018093070180910701909108014897D5
:1005E0000CF453CF10920801109207014ECF809166
:1005F0000B0190910C01E0910B01F0910C01BE01F7
:100600000E944104CB010596B8010E9441049C015F
:10061000220F331F880F991F880F991F880F991F6A
:10062000280F391FCF01BE010E944104280F391F36
:1006300030930C0120930B0168CF809107019091BA
:100640000801E0910701F0910801BE010E944104F8
:10065000CB010196B7010E9441049C01220F331F78
:10066000880F991F880F991F880F991F280F391F0E
:10067000CF01BE010E944104280F391F30930801A9
:1006800020930701809107019091080148970CF48D
:10069000FCCEA8CFE0910901F0910A0180910901F7
:1006A00090910A01BE010E9441040996BE010E9478
:1006B00041049C01CF01BE010E944104CB01880F7F
:1006C000991F660F771F660F771F660F771F860FBC
:1006D000971F820F931F90930A018093090115CFF2
:1006E0008091090190910A01E0910901F0910A01BC
:1006F000BE010E944104CB010596B8010E9441044D
:100700009C01220F331F880F991F880F991F880F94
:10071000991F280F391FCF01BE010E944104280FE5
:10072000391F30930A0120930901EFCEE0910901AE
:10073000F0910A018091090190910A01BE010E9485
:1007400041040196BE010E9441049C01CF01BE01FB
:100750000E944104CB01880F991F660F771F660F17
:10076000771F660F771F860F971F820F931F909337
:100770000A018093090189CE80910B0190910C01AF
:10078000E0910B01F0910C01BE010E944104CB01EC
:100790000196B8010E9441049C01220F331F880F6B
:1007A000991F880F991F880F991F280F391FCF0194
:1007B000BE010E944104280F391F30930C01209381
:1007C0000B0163CE8091090190910A01E09109012A
:1007D000F0910A01BE010E944104CB010196B801CB
:1007E0000E9441049C01220F331F880F991F880F1C
:1007F000991F880F991F280F391FCF01BE010E9432
:100800004104280F391F30930A01209309013DCE7E
:100810008091070190910801E0910701F091080192
:10082000BE010E944104CB010296B7010E9441041F
:100830009C01220F331F880F991F880F991F880F63
:10084000991F280F391FCF01BE010E944104280FB4
:10085000391F30930801209307018091070190917F
:10086000080148970CF451CE80910701909108013E
:10087000BE010E94410444969093080180930701B1
:1008800044CE97FB072E16F4009407D077FD09D0CD
:100890000E94550407FC05D03EF4909581959F4F2A
:1008A0000895709561957F4F0895AA1BBB1B51E178
:1008B00007C0AA1FBB1FA617B70710F0A61BB70BD0
:1008C000881F991F5A95A9F780959095BC01CD0175
:0608D0000895F894FFCF2B
:0208D60001001F
:00000001FF
